{"abi":[{"type":"function","name":"FORMAT_DEFAULT_SCIENTIFIC_MAX","inputs":[],"outputs":[{"name":"","type":"bytes32","internalType":"Float"}],"stateMutability":"view"},{"type":"function","name":"FORMAT_DEFAULT_SCIENTIFIC_MIN","inputs":[],"outputs":[{"name":"","type":"bytes32","internalType":"Float"}],"stateMutability":"view"},{"type":"function","name":"abs","inputs":[{"name":"a","type":"bytes32","internalType":"Float"}],"outputs":[{"name":"","type":"bytes32","internalType":"Float"}],"stateMutability":"pure"},{"type":"function","name":"add","inputs":[{"name":"a","type":"bytes32","internalType":"Float"},{"name":"b","type":"bytes32","internalType":"Float"}],"outputs":[{"name":"","type":"bytes32","internalType":"Float"}],"stateMutability":"pure"},{"type":"function","name":"ceil","inputs":[{"name":"a","type":"bytes32","internalType":"Float"}],"outputs":[{"name":"","type":"bytes32","internalType":"Float"}],"stateMutability":"pure"},{"type":"function","name":"div","inputs":[{"name":"a","type":"bytes32","internalType":"Float"},{"name":"b","type":"bytes32","internalType":"Float"}],"outputs":[{"name":"","type":"bytes32","internalType":"Float"}],"stateMutability":"pure"},{"type":"function","name":"e","inputs":[],"outputs":[{"name":"","type":"bytes32","internalType":"Float"}],"stateMutability":"pure"},{"type":"function","name":"eq","inputs":[{"name":"a","type":"bytes32","internalType":"Float"},{"name":"b","type":"bytes32","internalType":"Float"}],"outputs":[{"name":"","type":"bool","internalType":"bool"}],"stateMutability":"pure"},{"type":"function","name":"floor","inputs":[{"name":"a","type":"bytes32","internalType":"Float"}],"outputs":[{"name":"","type":"bytes32","internalType":"Float"}],"stateMutability":"pure"},{"type":"function","name":"format","inputs":[{"name":"a","type":"bytes32","internalType":"Float"},{"name":"scientific","type":"bool","internalType":"bool"}],"outputs":[{"name":"","type":"string","internalType":"string"}],"stateMutability":"pure"},{"type":"function","name":"format","inputs":[{"name":"a","type":"bytes32","internalType":"Float"}],"outputs":[{"name":"","type":"string","internalType":"string"}],"stateMutability":"pure"},{"type":"function","name":"format","inputs":[{"name":"a","type":"bytes32","internalType":"Float"},{"name":"scientificMin","type":"bytes32","internalType":"Float"},{"name":"scientificMax","type":"bytes32","internalType":"Float"}],"outputs":[{"name":"","type":"string","internalType":"string"}],"stateMutability":"pure"},{"type":"function","name":"frac","inputs":[{"name":"a","type":"bytes32","internalType":"Float"}],"outputs":[{"name":"","type":"bytes32","internalType":"Float"}],"stateMutability":"pure"},{"type":"function","name":"fromFixedDecimalLossless","inputs":[{"name":"value","type":"uint256","internalType":"uint256"},{"name":"decimals","type":"uint8","internalType":"uint8"}],"outputs":[{"name":"","type":"bytes32","internalType":"Float"}],"stateMutability":"pure"},{"type":"function","name":"fromFixedDecimalLossy","inputs":[{"name":"value","type":"uint256","internalType":"uint256"},{"name":"decimals","type":"uint8","internalType":"uint8"}],"outputs":[{"name":"","type":"bytes32","internalType":"Float"},{"name":"","type":"bool","internalType":"bool"}],"stateMutability":"pure"},{"type":"function","name":"gt","inputs":[{"name":"a","type":"bytes32","internalType":"Float"},{"name":"b","type":"bytes32","internalType":"Float"}],"outputs":[{"name":"","type":"bool","internalType":"bool"}],"stateMutability":"pure"},{"type":"function","name":"gte","inputs":[{"name":"a","type":"bytes32","internalType":"Float"},{"name":"b","type":"bytes32","internalType":"Float"}],"outputs":[{"name":"","type":"bool","internalType":"bool"}],"stateMutability":"pure"},{"type":"function","name":"integer","inputs":[{"name":"a","type":"bytes32","internalType":"Float"}],"outputs":[{"name":"","type":"bytes32","internalType":"Float"}],"stateMutability":"pure"},{"type":"function","name":"inv","inputs":[{"name":"a","type":"bytes32","internalType":"Float"}],"outputs":[{"name":"","type":"bytes32","internalType":"Float"}],"stateMutability":"pure"},{"type":"function","name":"isZero","inputs":[{"name":"a","type":"bytes32","internalType":"Float"}],"outputs":[{"name":"","type":"bool","internalType":"bool"}],"stateMutability":"pure"},{"type":"function","name":"log10","inputs":[{"name":"a","type":"bytes32","internalType":"Float"}],"outputs":[{"name":"","type":"bytes32","internalType":"Float"}],"stateMutability":"view"},{"type":"function","name":"lt","inputs":[{"name":"a","type":"bytes32","internalType":"Float"},{"name":"b","type":"bytes32","internalType":"Float"}],"outputs":[{"name":"","type":"bool","internalType":"bool"}],"stateMutability":"pure"},{"type":"function","name":"lte","inputs":[{"name":"a","type":"bytes32","internalType":"Float"},{"name":"b","type":"bytes32","internalType":"Float"}],"outputs":[{"name":"","type":"bool","internalType":"bool"}],"stateMutability":"pure"},{"type":"function","name":"max","inputs":[{"name":"a","type":"bytes32","internalType":"Float"},{"name":"b","type":"bytes32","internalType":"Float"}],"outputs":[{"name":"","type":"bytes32","internalType":"Float"}],"stateMutability":"pure"},{"type":"function","name":"maxNegativeValue","inputs":[],"outputs":[{"name":"","type":"bytes32","internalType":"Float"}],"stateMutability":"pure"},{"type":"function","name":"maxPositiveValue","inputs":[],"outputs":[{"name":"","type":"bytes32","internalType":"Float"}],"stateMutability":"pure"},{"type":"function","name":"min","inputs":[{"name":"a","type":"bytes32","internalType":"Float"},{"name":"b","type":"bytes32","internalType":"Float"}],"outputs":[{"name":"","type":"bytes32","internalType":"Float"}],"stateMutability":"pure"},{"type":"function","name":"minNegativeValue","inputs":[],"outputs":[{"name":"","type":"bytes32","internalType":"Float"}],"stateMutability":"pure"},{"type":"function","name":"minPositiveValue","inputs":[],"outputs":[{"name":"","type":"bytes32","internalType":"Float"}],"stateMutability":"pure"},{"type":"function","name":"minus","inputs":[{"name":"a","type":"bytes32","internalType":"Float"}],"outputs":[{"name":"","type":"bytes32","internalType":"Float"}],"stateMutability":"pure"},{"type":"function","name":"mul","inputs":[{"name":"a","type":"bytes32","internalType":"Float"},{"name":"b","type":"bytes32","internalType":"Float"}],"outputs":[{"name":"","type":"bytes32","internalType":"Float"}],"stateMutability":"pure"},{"type":"function","name":"parse","inputs":[{"name":"str","type":"string","internalType":"string"}],"outputs":[{"name":"","type":"bytes4","internalType":"bytes4"},{"name":"","type":"bytes32","internalType":"Float"}],"stateMutability":"pure"},{"type":"function","name":"pow","inputs":[{"name":"a","type":"bytes32","internalType":"Float"},{"name":"b","type":"bytes32","internalType":"Float"}],"outputs":[{"name":"","type":"bytes32","internalType":"Float"}],"stateMutability":"view"},{"type":"function","name":"pow10","inputs":[{"name":"a","type":"bytes32","internalType":"Float"}],"outputs":[{"name":"","type":"bytes32","internalType":"Float"}],"stateMutability":"view"},{"type":"function","name":"sqrt","inputs":[{"name":"a","type":"bytes32","internalType":"Float"}],"outputs":[{"name":"","type":"bytes32","internalType":"Float"}],"stateMutability":"view"},{"type":"function","name":"sub","inputs":[{"name":"a","type":"bytes32","internalType":"Float"},{"name":"b","type":"bytes32","internalType":"Float"}],"outputs":[{"name":"","type":"bytes32","internalType":"Float"}],"stateMutability":"pure"},{"type":"function","name":"toFixedDecimalLossless","inputs":[{"name":"float","type":"bytes32","internalType":"Float"},{"name":"decimals","type":"uint8","internalType":"uint8"}],"outputs":[{"name":"","type":"uint256","internalType":"uint256"}],"stateMutability":"pure"},{"type":"function","name":"toFixedDecimalLossy","inputs":[{"name":"float","type":"bytes32","internalType":"Float"},{"name":"decimals","type":"uint8","internalType":"uint8"}],"outputs":[{"name":"","type":"uint256","internalType":"uint256"},{"name":"","type":"bool","internalType":"bool"}],"stateMutability":"pure"},{"type":"function","name":"zero","inputs":[],"outputs":[{"name":"","type":"bytes32","internalType":"Float"}],"stateMutability":"pure"},{"type":"error","name":"CoefficientOverflow","inputs":[{"name":"signedCoefficient","type":"int256","internalType":"int256"},{"name":"exponent","type":"int256","internalType":"int256"}]},{"type":"error","name":"DivisionByZero","inputs":[{"name":"signedCoefficient","type":"int256","internalType":"int256"},{"name":"exponent","type":"int256","internalType":"int256"}]},{"type":"error","name":"ExponentOverflow","inputs":[{"name":"signedCoefficient","type":"int256","internalType":"int256"},{"name":"exponent","type":"int256","internalType":"int256"}]},{"type":"error","name":"Log10Negative","inputs":[{"name":"signedCoefficient","type":"int256","internalType":"int256"},{"name":"exponent","type":"int256","internalType":"int256"}]},{"type":"error","name":"Log10Zero","inputs":[]},{"type":"error","name":"LossyConversionFromFloat","inputs":[{"name":"signedCoefficient","type":"int256","internalType":"int256"},{"name":"exponent","type":"int256","internalType":"int256"}]},{"type":"error","name":"LossyConversionToFloat","inputs":[{"name":"signedCoefficient","type":"int256","internalType":"int256"},{"name":"exponent","type":"int256","internalType":"int256"}]},{"type":"error","name":"MaximizeOverflow","inputs":[{"name":"signedCoefficient","type":"int256","internalType":"int256"},{"name":"exponent","type":"int256","internalType":"int256"}]},{"type":"error","name":"MulDivOverflow","inputs":[{"name":"x","type":"uint256","internalType":"uint256"},{"name":"y","type":"uint256","internalType":"uint256"},{"name":"denominator","type":"uint256","internalType":"uint256"}]},{"type":"error","name":"NegativeFixedDecimalConversion","inputs":[{"name":"signedCoefficient","type":"int256","internalType":"int256"},{"name":"exponent","type":"int256","internalType":"int256"}]},{"type":"error","name":"PowNegativeBase","inputs":[{"name":"signedCoefficient","type":"int256","internalType":"int256"},{"name":"exponent","type":"int256","internalType":"int256"}]},{"type":"error","name":"UnformatableExponent","inputs":[{"name":"exponent","type":"int256","internalType":"int256"}]},{"type":"error","name":"WithTargetExponentOverflow","inputs":[{"name":"signedCoefficient","type":"int256","internalType":"int256"},{"name":"exponent","type":"int256","internalType":"int256"},{"name":"targetExponent","type":"int256","internalType":"int256"}]},{"type":"error","name":"ZeroNegativePower","inputs":[{"name":"b","type":"bytes32","internalType":"Float"}]},{"type":"error","name":"ZeroStringStartPointer","inputs":[]}],"bytecode":{"object":"0x6080604052348015600e575f80fd5b506146818061001c5f395ff3fe608060405234801561000f575f80fd5b506004361061029d575f3560e01c806381f7e2f511610171578063cde72ef3116100d2578063dd64691711610088578063e5526ecd1161006e578063e5526ecd1461062e578063e75f991f14610641578063ffae15ba14610654575f80fd5b8063dd64691714610608578063e0db58881461061b575f80fd5b8063d1de592a116100b8578063d1de592a146105bb578063d35273a7146105ce578063d3d6ffa8146105f5575f80fd5b8063cde72ef314610582578063d102b4d3146105a8575f80fd5b8063a19684b711610127578063bc1b392d1161010d578063bc1b392d1461050b578063bc62d8d814610511578063cb09682b1461055c575f80fd5b8063a19684b7146104d2578063a90d041a146104f8575f80fd5b806396ce1ec71161015757806396ce1ec7146104885780639b4afd991461049b578063a100a3d9146104bf575f80fd5b806381f7e2f5146104625780638dc2980714610475575f80fd5b80633447c0301161021b5780635ca0e7a4116101d1578063719cd99d116101b7578063719cd99d1461042957806373bfb2831461043c57806381a822721461044f575f80fd5b80635ca0e7a4146103f0578063602c35fc14610403575f80fd5b80633b3bd868116102015780633b3bd868146103b757806341aa0080146103ca5780635b23771d146103dd575f80fd5b80633447c03014610374578063371493ce14610397575f80fd5b80631ee62f111161027057806328fa1f011161025657806328fa1f011461033b5780633004fa411461034e5780633029740014610361575f80fd5b80631ee62f11146103155780632538835014610328575f80fd5b806304327dc5146102a1578063078b665b146102c75780630b6429bc146102da578063146e82ad14610302575b5f80fd5b6102b46102af366004613ea2565b61067a565b6040519081526020015b60405180910390f35b6102b46102d5366004613eb9565b61068a565b6102ed6102e8366004613ee9565b61069c565b604080519283529015156020830152016102be565b6102b4610310366004613ea2565b6106b4565b6102b4610323366004613ea2565b6106d3565b6102b4610336366004613ea2565b6106f2565b6102b4610349366004613ea2565b610711565b6102b461035c366004613eb9565b61071b565b6102b461036f366004613eb9565b61073b565b610387610382366004613eb9565b610746565b60405190151581526020016102be565b6103aa6103a5366004613f13565b610751565b6040516102be9190613f45565b6102b46103c5366004613ee9565b61075d565b6102b46103d8366004613eb9565b610768565b6102b46103eb366004613ee9565b610773565b6102b46103fe366004613ea2565b61077e565b7f80000000ffffffffffffffffffffffffffffffffffffffffffffffffffffffff6102b4565b6102b4610437366004613ea2565b610788565b61038761044a366004613eb9565b610792565b6102b461045d366004613ea2565b61079d565b610387610470366004613eb9565b6107a7565b610387610483366004613eb9565b6107b2565b6102b4610496366004613eb9565b6107bd565b6102b47c090000000000000000000000000000000000000000000000000000000181565b6103aa6104cd366004613ea2565b6107c8565b7f80000000000000000000000000000000000000000000000000000000000000016102b4565b6102b4610506366004613eb9565b610812565b5f6102b4565b61052461051f366004613fc5565b61081d565b604080517fffffffff0000000000000000000000000000000000000000000000000000000090931683526020830191909152016102be565b7f7fffffff7fffffffffffffffffffffffffffffffffffffffffffffffffffffff6102b4565b7f7fffffff800000000000000000000000000000000000000000000000000000006102b4565b6103876105b6366004613eb9565b610836565b6102b46105c9366004613eb9565b610841565b6102b47ffffffffc0000000000000000000000000000000000000000000000000000000181565b6102b4610603366004613ea2565b61084c565b610387610616366004613ea2565b610856565b6102b4610629366004613ea2565b61087c565b6103aa61063c36600461408e565b610886565b6102ed61064f366004613ee9565b61095b565b7fffffffbe19cfc6ef4f44cf88f14500d013df534fcaad48fca1d5ca47bea26fcc6102b4565b5f61068482610967565b92915050565b5f61069583836109b5565b9392505050565b5f806106a884846109d1565b915091505b9250929050565b5f61068482736421e8a23cdee2e6e579b2cdebc8c2a514843593610a12565b5f61068482736421e8a23cdee2e6e579b2cdebc8c2a514843593610a3e565b5f61068482736421e8a23cdee2e6e579b2cdebc8c2a514843593610a81565b5f61068482610ab4565b5f6106958383736421e8a23cdee2e6e579b2cdebc8c2a514843593610af5565b5f6106958383610d50565b5f6106958383610db3565b60606106958383610e01565b5f6106958383611248565b5f6106958383611263565b5f61069583836112a8565b5f610684826112db565b5f6106848261139d565b5f6106958383611449565b5f61068482611499565b5f61069583836114ee565b5f610695838361153e565b5f610695838361158d565b6060610684827ffffffffc000000000000000000000000000000000000000000000000000000017c0900000000000000000000000000000000000000000000000000000001610886565b5f61069583836115d2565b5f805f8061082a856115dd565b90969095509350505050565b5f61069583836116cb565b5f610695838361171a565b5f6106848261175f565b5f7bffffffffffffffffffffffffffffffffffffffffffffffffffffffff821615610684565b5f61068482611791565b606061089283836116cb565b610923576040517f08c379a000000000000000000000000000000000000000000000000000000000815260206004820152602d60248201527f736369656e74696669634d696e206d757374206265206c657373207468616e2060448201527f736369656e74696669634d61780000000000000000000000000000000000000060648201526084015b60405180910390fd5b5f61092d85611499565b90506109528561093d83876116cb565b8061094d575061094d838661153e565b610e01565b95945050505050565b5f806106a884846117d2565b5f7bffffffffffffffffffffffffffffffffffffffffffffffffffffffff8216601b0b60e083901d6109998282611812565b90925090505f806109aa8484611860565b509695505050505050565b5f6109c0838361153e565b6109ca5781610695565b5090919050565b5f807bffffffffffffffffffffffffffffffffffffffffffffffffffffffff8416601b0b60e085901d610a05828287611966565b9350935050509250929050565b5f610695837fffffffff0000000000000000000000000000000000000000000000000000000584610af5565b5f7bffffffffffffffffffffffffffffffffffffffffffffffffffffffff8316601b0b60e084901d610a71848383611ab5565b90925090505f6109aa8383611860565b5f7bffffffffffffffffffffffffffffffffffffffffffffffffffffffff8316601b0b60e084901d610a71848383611c26565b5f7bffffffffffffffffffffffffffffffffffffffffffffffffffffffff8216601b0b60e083901d82610ae78383611f5b565b9150505f6109aa8284611860565b5f7bffffffffffffffffffffffffffffffffffffffffffffffffffffffff848116601b0b9060e086901d908516610b325750600191506106959050565b5f8213610bcb57815f03610b8f57610b4a855f6116cb565b15610b84576040517f8be829720000000000000000000000000000000000000000000000000000000081526004810186905260240161091a565b505f91506106959050565b6040517fcceba0f1000000000000000000000000000000000000000000000000000000008152600481018390526024810182905260440161091a565b610bd6856001610db3565b8015610be75750610be7865f61153e565b15610bf6578592505050610695565b610c00855f6116cb565b15610c2957610c20610c1187610967565b610c1a8761175f565b86610af5565b92505050610695565b7bffffffffffffffffffffffffffffffffffffffffffffffffffffffff8516601b0b60e086901d5f80610c5c8484611f5b565b915091505f610c6c83855f611fc3565b905060015f8080610ca38f7bffffffffffffffffffffffffffffffffffffffffffffffffffffffff8116601b0b9160e09190911d90565b915091505b60018510610cea5784600116600103610ccd57610cc7848484846120da565b90945092505b600185901c9450610ce0828284846120da565b9092509050610ca8565b5f80610cf78f8e8e611c26565b91509150610d0782828a8d6120da565b9092509050610d178f8383611ab5565b9092509050610d28828288886120da565b90925090505f610d388383611860565b509e5050505050505050505050505050509392505050565b5f7bffffffffffffffffffffffffffffffffffffffffffffffffffffffff838116601b90810b9160e086811d9291861690910b9085901d8480610d95868686866121f9565b915091505f610da48383611860565b509a9950505050505050505050565b5f7bffffffffffffffffffffffffffffffffffffffffffffffffffffffff838116601b90810b9160e086811d9291861690910b9085901d610df68484848461281d565b979650505050505050565b60607bffffffffffffffffffffffffffffffffffffffffffffffffffffffff8316601b0b60e084901d5f829003610e71576040518060400160405280600181526020017f300000000000000000000000000000000000000000000000000000000000000081525092505050610684565b5f808515610f0d57610e838484612834565b9094509250610eb27f161bcca7119915b50764b4abe86529797775a5f171951000000000000000000085614111565b15610ee25750604c90507f161bcca7119915b50764b4abe86529797775a5f1719510000000000000000000610fbf565b50604b90507f0235fadd81c2822bb3f07877973d50f28bf22a31be8ee8000000000000000000610fbf565b5f831315610f3057610f2083600a61437c565b610f2a9085614387565b93505f92505b5f831215610fbb577fffffffffffffffffffffffffffffffffffffffffffffffffffffffffffffffb4831215610f95576040517fe44c72b00000000000000000000000000000000000000000000000000000000081526004810184905260240161091a565b610f9e836143d2565b610fa990600a6144a8565b9050610fb4836143d2565b9150610fbf565b5f91505b835f8215610fe057610fd18387614111565b9150610fdd83876144b3565b90505b5f80831215610ff857506001610ff5836143d2565b92505b5f82121561100f5750600161100c826143d2565b91505b60408051602080820183525f80835283519182019093529182529083156110ea575f8061103d600a896144c6565b90505b61104a8187614111565b5f0361106f5761105b600a826144c6565b905081611067816144d9565b925050611040565b5f5b828110156110c2578360405160200161108a9190614527565b604080517fffffffffffffffffffffffffffffffffffffffffffffffffffffffffffffffe08184030181529190529350600101611071565b505b6110cf600a876144b3565b5f036110e7576110e0600a87614111565b95506110c4565b50505b831561111f57806110fa85612896565b60405160200161110b92919061455f565b60405160208183030381529060405261112f565b60405180602001604052805f8152505b9150505f61113c85612896565b90505f611149888a6145a1565b90505f81158061115757508c155b6111885761116482612896565b60405160200161117491906145c8565b604051602081830303815290604052611198565b60405180602001604052805f8152505b90505f856111b45760405180602001604052805f8152506111eb565b6040518060400160405280600181526020017f2d000000000000000000000000000000000000000000000000000000000000008152505b90505f8185878560405160200161120594939291906145f9565b604080517fffffffffffffffffffffffffffffffffffffffffffffffffffffffffffffffe08184030181529190529d505050505050505050505050505092915050565b5f805f6112558585612922565b915091506109528282612978565b5f7bffffffffffffffffffffffffffffffffffffffffffffffffffffffff838116601b90810b9160e086811d9291861690910b9085901d8480610d95868686866129d2565b5f7bffffffffffffffffffffffffffffffffffffffffffffffffffffffff8316601b0b60e084901d6109528282866129fc565b5f7bffffffffffffffffffffffffffffffffffffffffffffffffffffffff8216601b0b60e083901d82811261131257509192915050565b5f8061131e8484611f5b565b915091505f8412801561133057508015155b156113865761138182847f161bcca7119915b50764b4abe86529797775a5f17195100000000000000000007fffffffffffffffffffffffffffffffffffffffffffffffffffffffffffffffb46129d2565b935091505b5f6113918385611860565b50979650505050505050565b5f7bffffffffffffffffffffffffffffffffffffffffffffffffffffffff8216601b0b60e083901d8281126113d457509192915050565b5f806113e08484611f5b565b91509150805f036113f5575093949350505050565b5f8113156113865761138182847f161bcca7119915b50764b4abe86529797775a5f17195100000000000000000007fffffffffffffffffffffffffffffffffffffffffffffffffffffffffffffffb4612a58565b5f7bffffffffffffffffffffffffffffffffffffffffffffffffffffffff838116601b90810b9160e086811d9291861690910b9085901d61148c84848484612b88565b1315979650505050505050565b5f7bffffffffffffffffffffffffffffffffffffffffffffffffffffffff8216601b0b60e083901d828212156114d9576114d38282612c5c565b90925090505b5f6114e48383611860565b5095945050505050565b5f7bffffffffffffffffffffffffffffffffffffffffffffffffffffffff838116601b90810b9160e086811d9291861690910b9085901d61153184848484612b88565b1215979650505050505050565b5f7bffffffffffffffffffffffffffffffffffffffffffffffffffffffff838116601b90810b9160e086811d9291861690910b9085901d61158184848484612b88565b12979650505050505050565b5f7bffffffffffffffffffffffffffffffffffffffffffffffffffffffff838116601b90810b9160e086811d9291861690910b9085901d8480610d95868686866120da565b5f6109c083836116cb565b80515f908190602084810191850101828080806115fa8686612cff565b929650909450925090507fffffffff0000000000000000000000000000000000000000000000000000000084165f036116bc5784830361168c575f806116408484611860565b915091508061167b57507f32b8b8be000000000000000000000000000000000000000000000000000000009a5f9a5098505050505050505050565b505f9a909950975050505050505050565b507fad384e8700000000000000000000000000000000000000000000000000000000985f98509650505050505050565b5091975f975095505050505050565b5f7bffffffffffffffffffffffffffffffffffffffffffffffffffffffff838116601b90810b9160e086811d9291861690910b9085901d61170e84848484612b88565b13979650505050505050565b5f7bffffffffffffffffffffffffffffffffffffffffffffffffffffffff838116601b90810b9160e086811d9291861690910b9085901d8480610d9586868686612a58565b5f7bffffffffffffffffffffffffffffffffffffffffffffffffffffffff8216601b0b60e083901d6114d38282612c5c565b5f7bffffffffffffffffffffffffffffffffffffffffffffffffffffffff8216601b0b60e083901d826117c48383611f5b565b5090505f6109aa8284611860565b5f805f805f6117e18787613142565b9250925092505f806117f38585611860565b91509150818380156118025750815b9650965050505050509250929050565b5f806106a87f161bcca7119915b50764b4abe86529797775a5f17195100000000000000000007fffffffffffffffffffffffffffffffffffffffffffffffffffffffffffffffb486866121f9565b5f601b83900b83148383826118c4577d90e40fbeea1d3a4abc8955e946fe31cdcf66f634e10000000000000000008605156118a457620186a0860595506005850194505b8586601b0b146118bf57600a860595508460010194506118a4565b6118da565b855f036118da57505f9250600191506106ad9050565b848560030b14611936575f8512156118fa57505f92508291506106ad9050565b6040517fd556b111000000000000000000000000000000000000000000000000000000008152600481018390526024810182905260440161091a565b50507bffffffffffffffffffffffffffffffffffffffffffffffffffffffff841660e084901b1791509250929050565b5f805f8512156119ac576040517f4a7d166b000000000000000000000000000000000000000000000000000000008152600481018690526024810185905260440161091a565b845f036119be57505f90506001611aad565b8460ff8416850185811215611a09576040517fd556b111000000000000000000000000000000000000000000000000000000008152600481018890526024810187905260440161091a565b5f805f831215611a73577fffffffffffffffffffffffffffffffffffffffffffffffffffffffffffffffb3831215611a4a575f809550955050505050611aad565b825f03600a0a9150818481611a6157611a616140b7565b0495505084029091149150611aad9050565b5f831315611aa257611a8683600a6144a8565b9150611a928285614623565b955060019450611aad9350505050565b509193506001925050505b935093915050565b5f805f841215611af157611ac98484612c5c565b9094509250611ad9858585611ab5565b9094509250611ae88484611812565b91509150611aad565b5f80611afd8686611f5b565b9092509050845f8080611b10858561319e565b9194509250905061270d612710611b2860018261463a565b8514611b3f57611b398d868661328d565b90925090505b8315611bca575f611b518660016145a1565b90505b808485830281611b6657611b666140b7565b0514611b7d57600a84059350600a88059750611b54565b611bbe611b8a8588614387565b89611b958785614387565b8f87877ffffffffffffffffffffffffffffffffffffffffffffffffffffffffffffffffc613345565b909d509b50611bf19050565b819b507ffffffffffffffffffffffffffffffffffffffffffffffffffffffffffffffffc9a505b505050505086611c0284835f611fc3565b611c0d8860016145a1565b611c1791906145a1565b94509450505050935093915050565b5f808383611c348282612834565b90965094505f8613611cb557855f03611c79576040517f561fc7b500000000000000000000000000000000000000000000000000000000815260040160405180910390fd5b6040517f5d3fd4db000000000000000000000000000000000000000000000000000000008152600481018390526024810182905260440161091a565b5050837f161bcca7119915b50764b4abe86529797775a5f171951000000000000000000003611cf357611ce983604c6145a1565b5f91509150611aad565b7f161bcca7119915b50764b4abe86529797775a5f171951000000000000000000084121580611d42577fffffffffffffffffffffffffffffffffffffffffffffffffffffffffffffffb5611d64565b7fffffffffffffffffffffffffffffffffffffffffffffffffffffffffffffffb45b5f0b8412611f1f575f805f805f85611d7d57604b611d80565b604c5b611d8a908a6145a1565b90505f8087611db7577d90e40fbeea1d3a4abc8955e946fe31cdcf66f634e1000000000000000000611dd8565b7e05a8e89d75252446eb5d5d5b1cc5edf20a1a059e10ca0000000000000000005b7effffffffffffffffffffffffffffffffffffffffffffffffffffffffffffff169050808c81611e0a57611e0a6140b7565b05818102955090850193507ffffffffffffffffffffffffffffffffffffffffffffffffffffffffffffffc18019050611e438c826133e2565b7d90e40fbeea1d3a4abc8955e946fe31cdcf66f634e10000000000000000000295508594508a8414611ecf576123278114611eaa57611e858c826001016133e2565b7d90e40fbeea1d3a4abc8955e946fe31cdcf66f634e100000000000000000002611ecc565b7f161bcca7119915b50764b4abe86529797775a5f17195100000000000000000005b94505b50611eff838b848c89897fffffffffffffffffffffffffffffffffffffffffffffffffffffffffffffffb4613345565b909a509850611f108a8a835f612a58565b97509750505050505050611aad565b611f298585611812565b9095509350611f39868686611c26565b9095509350611f488585612c5c565b9250925050611aad565b50935093915050565b5f805f8312611f6e57508290505f6106ad565b7fffffffffffffffffffffffffffffffffffffffffffffffffffffffffffffffb4831215611fa057505f9050826106ad565b5f839003600a0a808581611fb657611fb66140b7565b0794859003959350505050565b5f818303611fd2575082610695565b8282131561201557828203604c811380611fec57505f8113155b15611ffa575f915050610695565b80600a0a858161200c5761200c6140b7565b05915050610695565b818303604c81138061202757505f8113155b1561206f576040517f1d5d6d1000000000000000000000000000000000000000000000000000000000815260048101869052602481018590526044810184905260640161091a565b600a81900a85810286828281612087576120876140b7565b05146120d0576040517f1d5d6d1000000000000000000000000000000000000000000000000000000000815260048101889052602481018790526044810186905260640161091a565b9250610695915050565b5f80851584151780156120f2575f92505f91506121ef565b6120fc84876145a1565b91505f61210888613469565b90505f61211487613469565b90505f61212183836134cf565b5090505f6f0785ee10d5da46d900f436a000000000821115612156576f0785ee10d5da46d900f436a000000000820491506025015b670de0b6b3a764000082111561217757670de0b6b3a7640000820491506012015b633b9aca0082111561219057633b9aca00820491506009015b6127108211156121a557612710820491506004015b81156121b957600a820491506001016121a5565b6121c381876145a1565b95506121e58b8a6121df87876121da87600a6144a8565b61350a565b896135ef565b9097509550505050505b5094509492505050565b5f80835f0361223e576040517f7a97930f000000000000000000000000000000000000000000000000000000008152600481018790526024810186905260440161091a565b855f0361224f57505f905080612814565b5f805f8061225d8a8a6136f6565b919b509950915061226e88886136f6565b919950975090505f61227f8b613469565b90505f61228b8a613469565b90507f161bcca7119915b50764b4abe86529797775a5f1719510000000000000000000604c818310156126a85784156122e957507f0235fadd81c2822bb3f07877973d50f28bf22a31be8ee80000000000000000009050604b612667565b6f4b3b4ca85a86c47a098a22400000000083101561241557678ac7230489e80000831015612379576402540be40083101561234757620186a08310156123375750620186a0905060056125f0565b506402540be4009050600a6125f0565b655af3107a40008310156123665750655af3107a40009050600e6125f0565b50678ac7230489e80000905060136125f0565b6b204fce5e3e250261100000008310156123cb5769152d02c7e14af68000008310156123b4575069152d02c7e14af6800000905060176125f0565b506b204fce5e3e250261100000009050601c6125f0565b6d314dc6448d9338c15b0a000000008310156123fa57506d314dc6448d9338c15b0a00000000905060216125f0565b506f4b3b4ca85a86c47a098a224000000000905060266125f0565b780197d4df19d605767337e9f14d3eec8920e40000000000000083101561250d5773af298d050e4395d69670b12b7f410000000000008310156124a8577172cb5bd86321e38cb6ce6682e8000000000083101561248957507172cb5bd86321e38cb6ce6682e800000000009050602b6125f0565b5073af298d050e4395d69670b12b7f41000000000000905060306125f0565b76010b46c6cdd6e3e0828f4db456ff0c8ea00000000000008310156124e9575076010b46c6cdd6e3e0828f4db456ff0c8ea0000000000000905060356125f0565b50780197d4df19d605767337e9f14d3eec8920e4000000000000009050603a6125f0565b7c03b58e88c75313ec9d329eaaa18fb92f75215b171000000000000000008310156125a3577a026e4d30eccc3215dd8f3157d27e23acbdcfe6800000000000000083101561257b57507a026e4d30eccc3215dd8f3157d27e23acbdcfe680000000000000009050603f6125f0565b507c03b58e88c75313ec9d329eaaa18fb92f75215b17100000000000000000905060446125f0565b7e05a8e89d75252446eb5d5d5b1cc5edf20a1a059e10ca0000000000000000008310156125f057507e05a8e89d75252446eb5d5d5b1cc5edf20a1a059e10ca000000000000000000905060495b81831161262457600a820491507fffffffffffffffffffffffffffffffffffffffffffffffffffffffffffffffff016125f0565b815f03612667576040517f05e51ecb000000000000000000000000000000000000000000000000000000008152600481018d9052602481018c905260440161091a565b856126a8576040517f05e51ecb000000000000000000000000000000000000000000000000000000008152600481018f9052602481018e905260440161091a565b807f8000000000000000000000000000000000000000000000000000000000000000018d126126db57808d039c5061274e565b7f80000000000000000000000000000000000000000000000000000000000000009c90038c015f81131561274e57807f7fffffffffffffffffffffffffffffffffffffffffffffffffffffffffffffff038b1361273b57998a019961274e565b5f80995099505050505050505050612814565b5f808e12801561275d57505f8c135b1561279a577f80000000000000000000000000000000000000000000000000000000000000008e01808d13612792575f612796565b808d035b9150505b8b818f010397506127b78f8e6127b188878961350a565b8b6135ef565b90995097505f81131561280157604c8113156127e1575f809a509a50505050505050505050612814565b80600a0a89816127f3576127f36140b7565b059850885f03612801575f97505b5096985094965061281495505050505050565b94509492505050565b5f61282a85858585612b88565b1495945050505050565b5f805f805f61284387876136f6565b9250925092508061288a576040517f05e51ecb000000000000000000000000000000000000000000000000000000008152600481018890526024810187905260440161091a565b50909590945092505050565b60605f82126128b35760405180602001604052805f8152506128ea565b6040518060400160405280600181526020017f2d000000000000000000000000000000000000000000000000000000000000008152505b6128fb60ff84901d80850118613997565b60405160200161290c929190614660565b6040516020818303038152906040529050919050565b5f805f805f6129318787613142565b9250925092508061288a576040517fc4717966000000000000000000000000000000000000000000000000000000008152600481018490526024810183905260440161091a565b5f805f6129858585611860565b91509150806129ca576040517f22c9f7bb000000000000000000000000000000000000000000000000000000008152600481018690526024810185905260440161091a565b509392505050565b5f806129de8484612c5c565b90945092506129ef86868686612a58565b9150915094509492505050565b5f805f612a0a868686611966565b9150915080612a4f576040517f05e47678000000000000000000000000000000000000000000000000000000008152600481018790526024810186905260440161091a565b50949350505050565b5f8085158415178015612a8457865f03612a785784849250925050612814565b86869250925050612814565b612a8e8787612834565b9097509550612a9d8585612834565b909550935085841315612ab1579395929492935b838603604c811115612aca578787935093505050612814565b80600a0a8681612adc57612adc6140b7565b0595505086850180881860ff90811c151589881890911c15168015612b7757877f7fffffffffffffffffffffffffffffffffffffffffffffffffffffffffffffff03612b5e576040517fd556b111000000000000000000000000000000000000000000000000000000008152600481018a90526024810189905260440161091a565b600a968790059690980586019760019790970196612b7b565b8198505b5096979596505050505050565b5f8085158415178187128286121817858414178015612bad5786859250925050612814565b505f85841315612bc1575092949193919260015b8386035f8112604c8213178015612bf4578215612be6575f8994509450505050612814565b885f94509450505050612814565b600a82900a8981028a828281612c0c57612c0c6140b7565b0514612c38578415612c28575f8b965096505050505050612814565b8a5f965096505050505050612814565b8415612c4d5788965094506128149350505050565b95508794506128149350505050565b5f807f80000000000000000000000000000000000000000000000000000000000000008403612cf5577f7fffffffffffffffffffffffffffffffffffffffffffffffffffffffffffffff8303612ce8576040517fd556b111000000000000000000000000000000000000000000000000000000008152600481018590526024810184905260440161091a565b600a840593508260010192505b50505f9190910391565b5f828180612d14838665200000000000613a53565b92508583141583612d2e81886703ff000000000000613a53565b9450808503612d6857507f34bd20690000000000000000000000000000000000000000000000000000000094505f92508291506131399050565b5f80612d748a88613a7c565b90925090507fffffffff00000000000000000000000000000000000000000000000000000000821615612db2575095505f9350839250613139915050565b86519095506540000000000060015f9290921a9190911b16151588871016915050801561304157506001909301925f84612df581896703ff000000000000613a53565b9550808603612e3057507f7bfa48af0000000000000000000000000000000000000000000000000000000095505f9350839250613139915050565b855b7fffffffffffffffffffffffffffffffffffffffffffffffffffffffffffffffff81018051908a1160015f9290921a9190911b660100000000000016151516600103612e9f577fffffffffffffffffffffffffffffffffffffffffffffffffffffffffffffffff01612e32565b818114612ef6575f80612eb28484613a7c565b90925090507fffffffff00000000000000000000000000000000000000000000000000000000821615612ef2575097505f95508594506131399350505050565b9350505b5f831215612f3157507f7bfa48af0000000000000000000000000000000000000000000000000000000096505f945084935061313992505050565b8315612f3d57825f0392505b80820394505f851315612f7d57507f013b2aaa0000000000000000000000000000000000000000000000000000000096505f945084935061313992505050565b855f03612f8c5782955061303e565b5f8590036043811115612fcd57507f32b8b8be0000000000000000000000000000000000000000000000000000000097505f95508594506131399350505050565b600a0a8681025f88838381612fe457612fe46140b7565b0514159050601b82900b8214158180612ffa5750805b1561303657507f32b8b8be000000000000000000000000000000000000000000000000000000009a505f98508897506131399650505050505050565b505084019650505b50505b84516c2000000020000000000000000060015f9290921a9190911b16151587861016801561312a5760019095019485613081818a65200000000000613a53565b965086613097818b6703ff000000000000613a53565b97508088036130d457507f013b2aaa0000000000000000000000000000000000000000000000000000000097505f95508594506131399350505050565b505f806130e1838a613a7c565b90925090507fffffffff00000000000000000000000000000000000000000000000000000000821615613121575097505f95508594506131399350505050565b95860195925050505b845f03613135575f93505b5050505b92959194509250565b5f808060ff841681037f7fffffffffffffffffffffffffffffffffffffffffffffffffffffffffffffff86111561318d57600a860460018201600a88065f1493509350935050613197565b8593509150600190505b9250925092565b5f805f837ffffffffffffffffffffffffffffffffffffffffffffffffffffffffffffffffc036131d657508391505f90506001613197565b7ffffffffffffffffffffffffffffffffffffffffffffffffffffffffffffffffc841215613264577fffffffffffffffffffffffffffffffffffffffffffffffffffffffffffffffb084121561323557505f9150508215156001613197565b5f846004015f03600a0a90505f818781613251576132516140b7565b0594505080840286141592509050613197565b5f841261327957505f91508190506001613197565b50505060048101600a0a82025f6001613197565b5f808061329d600a6123286144c6565b6132aa600a6123286144c6565b6132b5906002614623565b6132c090600161466e565b6132ca919061466e565b6132d590606461466e565b9050613319565b5f8052600280600a8504028301601e833c5f80516107d0840193505f80526001600a8606600a6064880402018501601f853c5f5101949350505050565b6133248582886132dc565b92508315611f525761333a6001860182886132dc565b915050935093915050565b5f808888036133585750839050816133d6565b5f805f806133688c8b8f8d6129d2565b915091505f8061337a8a8a8d8c6129d2565b9150915061338a848484846120da565b8096508197505050505050505f806133a48b8b8f8d6129d2565b915091505f806133b6868686866121f9565b915091505f806133c884848f8e612a58565b909a50985050505050505050505b97509795505050505050565b5f806133f1600a6123286144c6565b6133fc906002614623565b61340790600161466e565b90505f613417600a6123286144c6565b90506002600a8504026001015f8052600281601e883c505f51617fff8116935061800081161561344657918101915b505f80526001600a8506600a6064870402018301601f873c50505f510192915050565b5f808212156134c6577f800000000000000000000000000000000000000000000000000000000000000082036134c057507f8000000000000000000000000000000000000000000000000000000000000000919050565b505f0390565b5090565b919050565b5f807fffffffffffffffffffffffffffffffffffffffffffffffffffffffffffffffff83850993909202808410938190039390930393915050565b5f805f61351786866134cf565b91509150815f0361353b57838181613531576135316140b7565b0492505050610695565b838210613585576040517f6c59da1200000000000000000000000000000000000000000000000000000000815260048101879052602481018690526044810185905260640161091a565b5f84868809600186198101871696879004966002600389028118808a02820302808a02820302808a02820302808a02820302808a02820302808a02909103025f82900382900490920185841190960395909502919093039390930492909217029150509392505050565b5f805f85871812156136b9577f7fffffffffffffffffffffffffffffffffffffffffffffffffffffffffffffff8411156136a65761364e7f7fffffffffffffffffffffffffffffffffffffffffffffffffffffffffffffff600161466e565b840361367e57507f8000000000000000000000000000000000000000000000000000000000000000905081612814565b613689600a856144c6565b613692906143d2565b61369d8460016145a1565b91509150612814565b6136af846143d2565b8391509150612814565b7f7fffffffffffffffffffffffffffffffffffffffffffffffffffffffffffffff8411156136ec57613692600a856144c6565b5082905081612814565b5f805f845f0361370e57505f91508190506001613197565b7f0235fadd81c2822bb3f07877973d50f28bf22a31be8ee800000000000000000085055f03613922576f4b3b4ca85a86c47a098a224000000000850515801561377757507f80000000000000000000000000000000000000000000000000000000000000268412155b15613798576f4b3b4ca85a86c47a098a224000000000850294506026840393505b7728c87cb5c89a2571ebfdcb54864ada834a0000000000000085051580156137e057507f80000000000000000000000000000000000000000000000000000000000000138412155b156137f957678ac7230489e80000850294506013840393505b7b097edd871cfda3a5697758bf0e3cbb5ac5741c640000000000000000850515801561384557507f800000000000000000000000000000000000000000000000000000000000000a8412155b1561385b576402540be40085029450600a840393505b7e3899162693736ac531a5a58f1fbb4b746504382ca7e400000000000000000085051580156138aa57507f80000000000000000000000000000000000000000000000000000000000000028412155b156138c05760648502945060028403935061385b565b7f0235fadd81c2822bb3f07877973d50f28bf22a31be8ee8000000000000000000850515801561391057507f80000000000000000000000000000000000000000000000000000000000000018412155b1561392257600a850294506001840393505b600a8086029081058614801561395857507f80000000000000000000000000000000000000000000000000000000000000018512155b15613967578095506001850394505b50939492935050507f0235fadd81c2822bb3f07877973d50f28bf22a31be8ee80000000000000000008305151590565b60605f6139a383613ba6565b60010190505f8167ffffffffffffffff8111156139c2576139c2613f98565b6040519080825280601f01601f1916602001820160405280156139ec576020820181803683370190505b5090508181016020015b7fffffffffffffffffffffffffffffffffffffffffffffffffffffffffffffffff017f3031323334353637383961626364656600000000000000000000000000000000600a86061a8153600a85049450846139f657509392505050565b5f5b5f82600186515f1a1b16118385101615613a7457600184019350613a55565b509192915050565b81515f90819065200000000000600191831a9190911b16151583851016808501908280613aa98488613c87565b90925090507fffffffff00000000000000000000000000000000000000000000000000000000821615613ae4575093505f92506106ad915050565b825f03613b47577f7fffffffffffffffffffffffffffffffffffffffffffffffffffffffffffffff8111613b18575f613b3a565b7f0fdc2635000000000000000000000000000000000000000000000000000000005b955093506106ad92505050565b7f80000000000000000000000000000000000000000000000000000000000000008111613b74575f613b96565b7f0fdc2635000000000000000000000000000000000000000000000000000000005b95505f0393505050509250929050565b5f807a184f03e93ff9f4daa797ed6e38ed64bf6a1f0100000000000000008310613bee577a184f03e93ff9f4daa797ed6e38ed64bf6a1f010000000000000000830492506040015b6d04ee2d6d415b85acef81000000008310613c1a576d04ee2d6d415b85acef8100000000830492506020015b662386f26fc100008310613c3857662386f26fc10000830492506010015b6305f5e1008310613c50576305f5e100830492506008015b6127108310613c6457612710830492506004015b60648310613c76576064830492506002015b600a83106106845760010192915050565b5f80828410613cba57507f34bd20690000000000000000000000000000000000000000000000000000000090505f6106ad565b835f03613cf3576040517fda6966d400000000000000000000000000000000000000000000000000000000815260040160405180910390fd5b60305f7fffffffffffffffffffffffffffffffffffffffffffffffffffffffffffffffff8501815b878210158015613d2b5750604d83105b15613d6e57815160018401937fffffffffffffffffffffffffffffffffffffffffffffffffffffffffffffffff90930192600a0a5f9190911a8590030201613d1b565b878210613e945781515f1a8490036001811115613db657507f0fdc26350000000000000000000000000000000000000000000000000000000095505f94506106ad9350505050565b600a84900a8102828101831115613df957507f0fdc26350000000000000000000000000000000000000000000000000000000096505f95506106ad945050505050565b9190910190507fffffffffffffffffffffffffffffffffffffffffffffffffffffffffffffffff909101905b878210613e945781515f1a60308114613e6957507f0fdc26350000000000000000000000000000000000000000000000000000000095505f94506106ad9350505050565b507fffffffffffffffffffffffffffffffffffffffffffffffffffffffffffffffff90910190613e25565b5f9890975095505050505050565b5f60208284031215613eb2575f80fd5b5035919050565b5f8060408385031215613eca575f80fd5b50508035926020909101359150565b803560ff811681146134ca575f80fd5b5f8060408385031215613efa575f80fd5b82359150613f0a60208401613ed9565b90509250929050565b5f8060408385031215613f24575f80fd5b8235915060208301358015158114613f3a575f80fd5b809150509250929050565b602081525f82518060208401528060208501604085015e5f6040828501015260407fffffffffffffffffffffffffffffffffffffffffffffffffffffffffffffffe0601f83011684010191505092915050565b7f4e487b71000000000000000000000000000000000000000000000000000000005f52604160045260245ffd5b5f60208284031215613fd5575f80fd5b813567ffffffffffffffff80821115613fec575f80fd5b818401915084601f830112613fff575f80fd5b81358181111561401157614011613f98565b604051601f82017fffffffffffffffffffffffffffffffffffffffffffffffffffffffffffffffe0908116603f0116810190838211818310171561405757614057613f98565b8160405282815287602084870101111561406f575f80fd5b826020860160208301375f928101602001929092525095945050505050565b5f805f606084860312156140a0575f80fd5b505081359360208301359350604090920135919050565b7f4e487b71000000000000000000000000000000000000000000000000000000005f52601260045260245ffd5b7f4e487b71000000000000000000000000000000000000000000000000000000005f52601160045260245ffd5b5f8261411f5761411f6140b7565b7fffffffffffffffffffffffffffffffffffffffffffffffffffffffffffffffff83147f800000000000000000000000000000000000000000000000000000000000000083141615614173576141736140e4565b500590565b600181815b808511156141d157817fffffffffffffffffffffffffffffffffffffffffffffffffffffffffffffffff048211156141b7576141b76140e4565b808516156141c457918102915b93841c939080029061417d565b509250929050565b80825b60018086116141eb5750611aad565b817f7fffffffffffffffffffffffffffffffffffffffffffffffffffffffffffffff0482111561421d5761421d6140e4565b8086161561422a57918102915b9490941c9380026141dc565b5f82801561424b57600181146142555761425e565b6001915050610684565b82915050610684565b508161426b57505f610684565b5060015f82138082146142835780156142ba576142ec565b827f7fffffffffffffffffffffffffffffffffffffffffffffffffffffffffffffff048311156142b5576142b56140e4565b6142ec565b827f7fffffffffffffffffffffffffffffffffffffffffffffffffffffffffffffff058312156142ec576142ec6140e4565b50808316156142f85750805b6143088360011c838402836141d9565b807f7fffffffffffffffffffffffffffffffffffffffffffffffffffffffffffffff0482115f8313161561433e5761433e6140e4565b807f80000000000000000000000000000000000000000000000000000000000000000582125f83121615614374576143746140e4565b029392505050565b5f6106958383614236565b8082025f82127f8000000000000000000000000000000000000000000000000000000000000000841416156143be576143be6140e4565b8181058314821517610684576106846140e4565b5f7f800000000000000000000000000000000000000000000000000000000000000082036134c0576134c06140e4565b5f8261441057506001610684565b8161441c57505f610684565b816001811461424b57600281036144495760ff84111561443e5761443e6140e4565b50506001821b610684565b5060208310610133831016604e8410600b841016171561446c575081810a610684565b6144768383614178565b807fffffffffffffffffffffffffffffffffffffffffffffffffffffffffffffffff04821115614374576143746140e4565b5f6106958383614402565b5f826144c1576144c16140b7565b500790565b5f826144d4576144d46140b7565b500490565b5f7fffffffffffffffffffffffffffffffffffffffffffffffffffffffffffffffff8203614509576145096140e4565b5060010190565b5f81518060208401855e5f93019283525090919050565b5f6145328284614510565b7f300000000000000000000000000000000000000000000000000000000000000081526001019392505050565b7f2e0000000000000000000000000000000000000000000000000000000000000081525f6145996145936001840186614510565b84614510565b949350505050565b8082018281125f8312801582168215821617156145c0576145c06140e4565b505092915050565b7f650000000000000000000000000000000000000000000000000000000000000081525f6106956001830184614510565b5f61461961459361461361460d858a614510565b88614510565b86614510565b9695505050505050565b8082028115828204841417610684576106846140e4565b8181035f831280158383131683831282161715614659576146596140e4565b5092915050565b5f6145996145938386614510565b80820180821115610684576106846140e456","linkReferences":{}},"methodIdentifiers":{"FORMAT_DEFAULT_SCIENTIFIC_MAX()":"9b4afd99","FORMAT_DEFAULT_SCIENTIFIC_MIN()":"d35273a7","abs(bytes32)":"81a82272","add(bytes32,bytes32)":"d1de592a","ceil(bytes32)":"719cd99d","div(bytes32,bytes32)":"30297400","e()":"ffae15ba","eq(bytes32,bytes32)":"3447c030","floor(bytes32)":"5ca0e7a4","format(bytes32)":"a100a3d9","format(bytes32,bool)":"371493ce","format(bytes32,bytes32,bytes32)":"e5526ecd","frac(bytes32)":"28fa1f01","fromFixedDecimalLossless(uint256,uint8)":"3b3bd868","fromFixedDecimalLossy(uint256,uint8)":"e75f991f","gt(bytes32,bytes32)":"8dc29807","gte(bytes32,bytes32)":"73bfb283","integer(bytes32)":"e0db5888","inv(bytes32)":"04327dc5","isZero(bytes32)":"dd646917","log10(bytes32)":"25388350","lt(bytes32,bytes32)":"d102b4d3","lte(bytes32,bytes32)":"81f7e2f5","max(bytes32,bytes32)":"078b665b","maxNegativeValue()":"602c35fc","maxPositiveValue()":"cb09682b","min(bytes32,bytes32)":"a90d041a","minNegativeValue()":"cde72ef3","minPositiveValue()":"a19684b7","minus(bytes32)":"d3d6ffa8","mul(bytes32,bytes32)":"96ce1ec7","parse(string)":"bc62d8d8","pow(bytes32,bytes32)":"3004fa41","pow10(bytes32)":"1ee62f11","sqrt(bytes32)":"146e82ad","sub(bytes32,bytes32)":"41aa0080","toFixedDecimalLossless(bytes32,uint8)":"5b23771d","toFixedDecimalLossy(bytes32,uint8)":"0b6429bc","zero()":"bc1b392d"},"id":46}